{
  "_format": "hh-sol-artifact-1",
  "contractName": "Create",
  "sourceName": "contracts/votingcontract.sol",
  "abi": [
    {
      "inputs": [],
      "stateMutability": "nonpayable",
      "type": "constructor"
    },
    {
      "anonymous": false,
      "inputs": [
        {
          "indexed": true,
          "internalType": "uint256",
          "name": "CandidateId",
          "type": "uint256"
        },
        {
          "indexed": false,
          "internalType": "string",
          "name": "age",
          "type": "string"
        },
        {
          "indexed": false,
          "internalType": "string",
          "name": "name",
          "type": "string"
        },
        {
          "indexed": false,
          "internalType": "string",
          "name": "image",
          "type": "string"
        },
        {
          "indexed": false,
          "internalType": "uint256",
          "name": "voteCount",
          "type": "uint256"
        },
        {
          "indexed": false,
          "internalType": "address",
          "name": "_address",
          "type": "address"
        },
        {
          "indexed": false,
          "internalType": "string",
          "name": "ipfs",
          "type": "string"
        }
      ],
      "name": "CandidateCreate",
      "type": "event"
    },
    {
      "anonymous": false,
      "inputs": [
        {
          "indexed": false,
          "internalType": "uint256",
          "name": "voter_voterId",
          "type": "uint256"
        },
        {
          "indexed": false,
          "internalType": "string",
          "name": "voterName",
          "type": "string"
        },
        {
          "indexed": false,
          "internalType": "string",
          "name": "voterImage",
          "type": "string"
        },
        {
          "indexed": false,
          "internalType": "address",
          "name": "voterAddress",
          "type": "address"
        },
        {
          "indexed": false,
          "internalType": "uint256",
          "name": "voterAllowed",
          "type": "uint256"
        },
        {
          "indexed": false,
          "internalType": "bool",
          "name": "voted",
          "type": "bool"
        },
        {
          "indexed": false,
          "internalType": "uint256",
          "name": "voterVote",
          "type": "uint256"
        },
        {
          "indexed": false,
          "internalType": "string",
          "name": "voterIpfs",
          "type": "string"
        }
      ],
      "name": "voterCreated",
      "type": "event"
    },
    {
      "inputs": [],
      "name": "_candId",
      "outputs": [
        {
          "internalType": "uint256",
          "name": "",
          "type": "uint256"
        }
      ],
      "stateMutability": "view",
      "type": "function"
    },
    {
      "inputs": [],
      "name": "_voterId",
      "outputs": [
        {
          "internalType": "uint256",
          "name": "",
          "type": "uint256"
        }
      ],
      "stateMutability": "view",
      "type": "function"
    },
    {
      "inputs": [
        {
          "internalType": "uint256",
          "name": "",
          "type": "uint256"
        }
      ],
      "name": "candidateAddress",
      "outputs": [
        {
          "internalType": "address",
          "name": "",
          "type": "address"
        }
      ],
      "stateMutability": "view",
      "type": "function"
    },
    {
      "inputs": [
        {
          "internalType": "address",
          "name": "",
          "type": "address"
        }
      ],
      "name": "candidates",
      "outputs": [
        {
          "internalType": "uint256",
          "name": "CandidateId",
          "type": "uint256"
        },
        {
          "internalType": "string",
          "name": "age",
          "type": "string"
        },
        {
          "internalType": "string",
          "name": "name",
          "type": "string"
        },
        {
          "internalType": "string",
          "name": "image",
          "type": "string"
        },
        {
          "internalType": "uint256",
          "name": "voteCount",
          "type": "uint256"
        },
        {
          "internalType": "address",
          "name": "_address",
          "type": "address"
        },
        {
          "internalType": "string",
          "name": "ipfs",
          "type": "string"
        }
      ],
      "stateMutability": "view",
      "type": "function"
    },
    {
      "inputs": [],
      "name": "getCandidate",
      "outputs": [
        {
          "internalType": "address[]",
          "name": "",
          "type": "address[]"
        }
      ],
      "stateMutability": "view",
      "type": "function"
    },
    {
      "inputs": [
        {
          "internalType": "address",
          "name": "_address",
          "type": "address"
        }
      ],
      "name": "getCandidateData",
      "outputs": [
        {
          "internalType": "string",
          "name": "",
          "type": "string"
        },
        {
          "internalType": "string",
          "name": "",
          "type": "string"
        },
        {
          "internalType": "uint256",
          "name": "",
          "type": "uint256"
        },
        {
          "internalType": "string",
          "name": "",
          "type": "string"
        },
        {
          "internalType": "uint256",
          "name": "",
          "type": "uint256"
        },
        {
          "internalType": "string",
          "name": "",
          "type": "string"
        },
        {
          "internalType": "address",
          "name": "",
          "type": "address"
        }
      ],
      "stateMutability": "view",
      "type": "function"
    },
    {
      "inputs": [],
      "name": "getCandidateLength",
      "outputs": [
        {
          "internalType": "uint256",
          "name": "",
          "type": "uint256"
        }
      ],
      "stateMutability": "view",
      "type": "function"
    },
    {
      "inputs": [],
      "name": "getVotedVotersList",
      "outputs": [
        {
          "internalType": "address[]",
          "name": "",
          "type": "address[]"
        }
      ],
      "stateMutability": "view",
      "type": "function"
    },
    {
      "inputs": [
        {
          "internalType": "address",
          "name": "_address",
          "type": "address"
        }
      ],
      "name": "getVoterData",
      "outputs": [
        {
          "internalType": "uint256",
          "name": "",
          "type": "uint256"
        },
        {
          "internalType": "string",
          "name": "",
          "type": "string"
        },
        {
          "internalType": "string",
          "name": "",
          "type": "string"
        },
        {
          "internalType": "address",
          "name": "",
          "type": "address"
        },
        {
          "internalType": "string",
          "name": "",
          "type": "string"
        },
        {
          "internalType": "string",
          "name": "",
          "type": "string"
        },
        {
          "internalType": "bool",
          "name": "",
          "type": "bool"
        }
      ],
      "stateMutability": "view",
      "type": "function"
    },
    {
      "inputs": [],
      "name": "getVoterLength",
      "outputs": [
        {
          "internalType": "uint256",
          "name": "",
          "type": "uint256"
        }
      ],
      "stateMutability": "view",
      "type": "function"
    },
    {
      "inputs": [],
      "name": "getVoterList",
      "outputs": [
        {
          "internalType": "address[]",
          "name": "",
          "type": "address[]"
        }
      ],
      "stateMutability": "view",
      "type": "function"
    },
    {
      "inputs": [
        {
          "internalType": "address",
          "name": "_address",
          "type": "address"
        },
        {
          "internalType": "string",
          "name": "_age",
          "type": "string"
        },
        {
          "internalType": "string",
          "name": "_name",
          "type": "string"
        },
        {
          "internalType": "string",
          "name": "_ipfs",
          "type": "string"
        },
        {
          "internalType": "string",
          "name": "_image",
          "type": "string"
        }
      ],
      "name": "setCandidate",
      "outputs": [],
      "stateMutability": "nonpayable",
      "type": "function"
    },
    {
      "inputs": [
        {
          "internalType": "address",
          "name": "_candidateAddress",
          "type": "address"
        },
        {
          "internalType": "uint256",
          "name": "_candidateVoteId",
          "type": "uint256"
        }
      ],
      "name": "vote",
      "outputs": [],
      "stateMutability": "nonpayable",
      "type": "function"
    },
    {
      "inputs": [
        {
          "internalType": "uint256",
          "name": "",
          "type": "uint256"
        }
      ],
      "name": "votedVoters",
      "outputs": [
        {
          "internalType": "address",
          "name": "",
          "type": "address"
        }
      ],
      "stateMutability": "view",
      "type": "function"
    },
    {
      "inputs": [
        {
          "internalType": "address",
          "name": "_address",
          "type": "address"
        },
        {
          "internalType": "string",
          "name": "_name",
          "type": "string"
        },
        {
          "internalType": "string",
          "name": "_image",
          "type": "string"
        },
        {
          "internalType": "string",
          "name": "_ipfs",
          "type": "string"
        }
      ],
      "name": "voterRight",
      "outputs": [],
      "stateMutability": "nonpayable",
      "type": "function"
    },
    {
      "inputs": [
        {
          "internalType": "address",
          "name": "",
          "type": "address"
        }
      ],
      "name": "voters",
      "outputs": [
        {
          "internalType": "uint256",
          "name": "voter_voterId",
          "type": "uint256"
        },
        {
          "internalType": "string",
          "name": "voterName",
          "type": "string"
        },
        {
          "internalType": "string",
          "name": "voterImage",
          "type": "string"
        },
        {
          "internalType": "address",
          "name": "voterAddress",
          "type": "address"
        },
        {
          "internalType": "uint256",
          "name": "voterAllowed",
          "type": "uint256"
        },
        {
          "internalType": "bool",
          "name": "voted",
          "type": "bool"
        },
        {
          "internalType": "uint256",
          "name": "voterVote",
          "type": "uint256"
        },
        {
          "internalType": "string",
          "name": "voterIpfs",
          "type": "string"
        }
      ],
      "stateMutability": "view",
      "type": "function"
    },
    {
      "inputs": [
        {
          "internalType": "uint256",
          "name": "",
          "type": "uint256"
        }
      ],
      "name": "votersAddress",
      "outputs": [
        {
          "internalType": "address",
          "name": "",
          "type": "address"
        }
      ],
      "stateMutability": "view",
      "type": "function"
    },
    {
      "inputs": [],
      "name": "votingOrganizer",
      "outputs": [
        {
          "internalType": "address",
          "name": "",
          "type": "address"
        }
      ],
      "stateMutability": "view",
      "type": "function"
    }
  ],
  "bytecode": "0x608060405234801561001057600080fd5b5033600260006101000a81548173ffffffffffffffffffffffffffffffffffffffff021916908373ffffffffffffffffffffffffffffffffffffffff16021790555061291d806100616000396000f3fe608060405234801561001057600080fd5b50600436106101165760003560e01c80637831ffb3116100a2578063add54d7d11610071578063add54d7d14610334578063b28d92ae14610352578063b9be315214610370578063c91ec7121461038e578063f7522a83146103aa57610116565b80637831ffb3146102615780638ab66a90146102915780638fb4cd80146102c7578063a3ec138d146102fd57610116565b80633a88251a116100e95780633a88251a146101a957806343242daa146101d95780635cc48aa7146102095780635f74bbde1461022757806370218b851461024357610116565b80630361419e1461011b57806305ad45a41461013757806313182dce146101555780632a466ac714610173575b600080fd5b61013560048036038101906101309190611b1e565b6103c8565b005b61013f61066c565b60405161014c9190611bf2565b60405180910390f35b61015d610679565b60405161016a9190611ccb565b60405180910390f35b61018d60048036038101906101889190611ced565b610707565b6040516101a09796959493929190611da8565b60405180910390f35b6101c360048036038101906101be9190611e5f565b610b4e565b6040516101d09190611e8c565b60405180910390f35b6101f360048036038101906101ee9190611e5f565b610b8d565b6040516102009190611e8c565b60405180910390f35b610211610bcc565b60405161021e9190611e8c565b60405180910390f35b610241600480360381019061023c9190611ea7565b610bf2565b005b61024b610db4565b6040516102589190611ccb565b60405180910390f35b61027b60048036038101906102769190611e5f565b610db9565b6040516102889190611e8c565b60405180910390f35b6102ab60048036038101906102a69190611ced565b610df8565b6040516102be9796959493929190611ee7565b60405180910390f35b6102e160048036038101906102dc9190611ced565b61107a565b6040516102f49796959493929190611f8d565b60405180910390f35b61031760048036038101906103129190611ced565b6114cd565b60405161032b989796959493929190612018565b60405180910390f35b61033c6116da565b6040516103499190611bf2565b60405180910390f35b61035a6116e0565b6040516103679190611ccb565b60405180910390f35b61037861176e565b6040516103859190611bf2565b60405180910390f35b6103a860048036038101906103a391906120ab565b611774565b005b6103b2611961565b6040516103bf9190611bf2565b60405180910390f35b600260009054906101000a900473ffffffffffffffffffffffffffffffffffffffff1673ffffffffffffffffffffffffffffffffffffffff163373ffffffffffffffffffffffffffffffffffffffff1614610458576040517f08c379a000000000000000000000000000000000000000000000000000000000815260040161044f90612208565b60405180910390fd5b60008081548092919061046a90612257565b91905055506000600760008673ffffffffffffffffffffffffffffffffffffffff1673ffffffffffffffffffffffffffffffffffffffff168152602001908152602001600020905060008160040154146104f9576040517f08c379a00000000000000000000000000000000000000000000000000000000081526004016104f0906122eb565b60405180910390fd5b60018160040181905550838160010190816105149190612517565b50828160020190816105269190612517565b50818160070190816105389190612517565b506000548160000181905550848160030160006101000a81548173ffffffffffffffffffffffffffffffffffffffff021916908373ffffffffffffffffffffffffffffffffffffffff1602179055506103e8816006018190555060008160050160006101000a81548160ff0219169083151502179055506006859080600181540180825580915050600190039060005260206000200160009091909190916101000a81548173ffffffffffffffffffffffffffffffffffffffff021916908373ffffffffffffffffffffffffffffffffffffffff1602179055507fa82760a4fb77b1af9728c15d96987c3f10b4f156d752048393e8518ae42a4a6e6000548585888560040154600087600601548860070160405161065d98979695949392919061266d565b60405180910390a15050505050565b6000600680549050905090565b606060058054806020026020016040519081016040528092919081815260200182805480156106fd57602002820191906000526020600020905b8160009054906101000a900473ffffffffffffffffffffffffffffffffffffffff1673ffffffffffffffffffffffffffffffffffffffff16815260200190600101908083116106b3575b5050505050905090565b60608060006060600060606000600460008973ffffffffffffffffffffffffffffffffffffffff1673ffffffffffffffffffffffffffffffffffffffff168152602001908152602001600020600101600460008a73ffffffffffffffffffffffffffffffffffffffff1673ffffffffffffffffffffffffffffffffffffffff168152602001908152602001600020600201600460008b73ffffffffffffffffffffffffffffffffffffffff1673ffffffffffffffffffffffffffffffffffffffff16815260200190815260200160002060000154600460008c73ffffffffffffffffffffffffffffffffffffffff1673ffffffffffffffffffffffffffffffffffffffff168152602001908152602001600020600301600460008d73ffffffffffffffffffffffffffffffffffffffff1673ffffffffffffffffffffffffffffffffffffffff16815260200190815260200160002060040154600460008e73ffffffffffffffffffffffffffffffffffffffff1673ffffffffffffffffffffffffffffffffffffffff168152602001908152602001600020600601600460008f73ffffffffffffffffffffffffffffffffffffffff1673ffffffffffffffffffffffffffffffffffffffff16815260200190815260200160002060050160009054906101000a900473ffffffffffffffffffffffffffffffffffffffff168680546109119061233a565b80601f016020809104026020016040519081016040528092919081815260200182805461093d9061233a565b801561098a5780601f1061095f5761010080835404028352916020019161098a565b820191906000526020600020905b81548152906001019060200180831161096d57829003601f168201915b5050505050965085805461099d9061233a565b80601f01602080910402602001604051908101604052809291908181526020018280546109c99061233a565b8015610a165780601f106109eb57610100808354040283529160200191610a16565b820191906000526020600020905b8154815290600101906020018083116109f957829003601f168201915b50505050509550838054610a299061233a565b80601f0160208091040260200160405190810160405280929190818152602001828054610a559061233a565b8015610aa25780601f10610a7757610100808354040283529160200191610aa2565b820191906000526020600020905b815481529060010190602001808311610a8557829003601f168201915b50505050509350818054610ab59061233a565b80601f0160208091040260200160405190810160405280929190818152602001828054610ae19061233a565b8015610b2e5780601f10610b0357610100808354040283529160200191610b2e565b820191906000526020600020905b815481529060010190602001808311610b1157829003601f168201915b505050505091509650965096509650965096509650919395979092949650565b60038181548110610b5e57600080fd5b906000526020600020016000915054906101000a900473ffffffffffffffffffffffffffffffffffffffff1681565b60068181548110610b9d57600080fd5b906000526020600020016000915054906101000a900473ffffffffffffffffffffffffffffffffffffffff1681565b600260009054906101000a900473ffffffffffffffffffffffffffffffffffffffff1681565b6000600760003373ffffffffffffffffffffffffffffffffffffffff1673ffffffffffffffffffffffffffffffffffffffff16815260200190815260200160002090508060050160009054906101000a900460ff1615610c87576040517f08c379a0000000000000000000000000000000000000000000000000000000008152600401610c7e9061274c565b60405180910390fd5b6000816004015403610cce576040517f08c379a0000000000000000000000000000000000000000000000000000000008152600401610cc5906127b8565b60405180910390fd5b60018160050160006101000a81548160ff0219169083151502179055508181600601819055506005339080600181540180825580915050600190039060005260206000200160009091909190916101000a81548173ffffffffffffffffffffffffffffffffffffffff021916908373ffffffffffffffffffffffffffffffffffffffff160217905550600460008473ffffffffffffffffffffffffffffffffffffffff1673ffffffffffffffffffffffffffffffffffffffff1681526020019081526020016000206004016000815480929190610daa90612257565b9190505550505050565b606090565b60058181548110610dc957600080fd5b906000526020600020016000915054906101000a900473ffffffffffffffffffffffffffffffffffffffff1681565b6004602052806000526040600020600091509050806000015490806001018054610e219061233a565b80601f0160208091040260200160405190810160405280929190818152602001828054610e4d9061233a565b8015610e9a5780601f10610e6f57610100808354040283529160200191610e9a565b820191906000526020600020905b815481529060010190602001808311610e7d57829003601f168201915b505050505090806002018054610eaf9061233a565b80601f0160208091040260200160405190810160405280929190818152602001828054610edb9061233a565b8015610f285780601f10610efd57610100808354040283529160200191610f28565b820191906000526020600020905b815481529060010190602001808311610f0b57829003601f168201915b505050505090806003018054610f3d9061233a565b80601f0160208091040260200160405190810160405280929190818152602001828054610f699061233a565b8015610fb65780601f10610f8b57610100808354040283529160200191610fb6565b820191906000526020600020905b815481529060010190602001808311610f9957829003601f168201915b5050505050908060040154908060050160009054906101000a900473ffffffffffffffffffffffffffffffffffffffff1690806006018054610ff79061233a565b80601f01602080910402602001604051908101604052809291908181526020018280546110239061233a565b80156110705780601f1061104557610100808354040283529160200191611070565b820191906000526020600020905b81548152906001019060200180831161105357829003601f168201915b5050505050905087565b600060608060006060806000600760008973ffffffffffffffffffffffffffffffffffffffff1673ffffffffffffffffffffffffffffffffffffffff16815260200190815260200160002060000154600760008a73ffffffffffffffffffffffffffffffffffffffff1673ffffffffffffffffffffffffffffffffffffffff168152602001908152602001600020600101600760008b73ffffffffffffffffffffffffffffffffffffffff1673ffffffffffffffffffffffffffffffffffffffff168152602001908152602001600020600201600760008c73ffffffffffffffffffffffffffffffffffffffff1673ffffffffffffffffffffffffffffffffffffffff16815260200190815260200160002060030160009054906101000a900473ffffffffffffffffffffffffffffffffffffffff16600760008d73ffffffffffffffffffffffffffffffffffffffff1673ffffffffffffffffffffffffffffffffffffffff168152602001908152602001600020600701600760008e73ffffffffffffffffffffffffffffffffffffffff1673ffffffffffffffffffffffffffffffffffffffff168152602001908152602001600020600201600760008f73ffffffffffffffffffffffffffffffffffffffff1673ffffffffffffffffffffffffffffffffffffffff16815260200190815260200160002060050160009054906101000a900460ff168580546112909061233a565b80601f01602080910402602001604051908101604052809291908181526020018280546112bc9061233a565b80156113095780601f106112de57610100808354040283529160200191611309565b820191906000526020600020905b8154815290600101906020018083116112ec57829003601f168201915b5050505050955084805461131c9061233a565b80601f01602080910402602001604051908101604052809291908181526020018280546113489061233a565b80156113955780601f1061136a57610100808354040283529160200191611395565b820191906000526020600020905b81548152906001019060200180831161137857829003601f168201915b505050505094508280546113a89061233a565b80601f01602080910402602001604051908101604052809291908181526020018280546113d49061233a565b80156114215780601f106113f657610100808354040283529160200191611421565b820191906000526020600020905b81548152906001019060200180831161140457829003601f168201915b505050505092508180546114349061233a565b80601f01602080910402602001604051908101604052809291908181526020018280546114609061233a565b80156114ad5780601f10611482576101008083540402835291602001916114ad565b820191906000526020600020905b81548152906001019060200180831161149057829003601f168201915b505050505091509650965096509650965096509650919395979092949650565b60076020528060005260406000206000915090508060000154908060010180546114f69061233a565b80601f01602080910402602001604051908101604052809291908181526020018280546115229061233a565b801561156f5780601f106115445761010080835404028352916020019161156f565b820191906000526020600020905b81548152906001019060200180831161155257829003601f168201915b5050505050908060020180546115849061233a565b80601f01602080910402602001604051908101604052809291908181526020018280546115b09061233a565b80156115fd5780601f106115d2576101008083540402835291602001916115fd565b820191906000526020600020905b8154815290600101906020018083116115e057829003601f168201915b5050505050908060030160009054906101000a900473ffffffffffffffffffffffffffffffffffffffff16908060040154908060050160009054906101000a900460ff16908060060154908060070180546116579061233a565b80601f01602080910402602001604051908101604052809291908181526020018280546116839061233a565b80156116d05780601f106116a5576101008083540402835291602001916116d0565b820191906000526020600020905b8154815290600101906020018083116116b357829003601f168201915b5050505050905088565b60015481565b6060600680548060200260200160405190810160405280929190818152602001828054801561176457602002820191906000526020600020905b8160009054906101000a900473ffffffffffffffffffffffffffffffffffffffff1673ffffffffffffffffffffffffffffffffffffffff168152602001906001019080831161171a575b5050505050905090565b60005481565b600260009054906101000a900473ffffffffffffffffffffffffffffffffffffffff1673ffffffffffffffffffffffffffffffffffffffff163373ffffffffffffffffffffffffffffffffffffffff1614611804576040517f08c379a00000000000000000000000000000000000000000000000000000000081526004016117fb9061284a565b60405180910390fd5b6001600081548092919061181790612257565b9190505550600060015490506000600460008873ffffffffffffffffffffffffffffffffffffffff1673ffffffffffffffffffffffffffffffffffffffff1681526020019081526020016000209050858160010190816118779190612517565b50848160020190816118899190612517565b50818160000181905550838160060190816118a49190612517565b50600081600401819055506003879080600181540180825580915050600190039060005260206000200160009091909190916101000a81548173ffffffffffffffffffffffffffffffffffffffff021916908373ffffffffffffffffffffffffffffffffffffffff160217905550817fd297f12b256bb8485a6013fb5e302017018123e99a0ebb20756c09e1707b4b9087878685600401548c8a6040516119509695949392919061286a565b60405180910390a250505050505050565b600090565b6000604051905090565b600080fd5b600080fd5b600073ffffffffffffffffffffffffffffffffffffffff82169050919050565b60006119a58261197a565b9050919050565b6119b58161199a565b81146119c057600080fd5b50565b6000813590506119d2816119ac565b92915050565b600080fd5b600080fd5b6000601f19601f8301169050919050565b7f4e487b7100000000000000000000000000000000000000000000000000000000600052604160045260246000fd5b611a2b826119e2565b810181811067ffffffffffffffff82111715611a4a57611a496119f3565b5b80604052505050565b6000611a5d611966565b9050611a698282611a22565b919050565b600067ffffffffffffffff821115611a8957611a886119f3565b5b611a92826119e2565b9050602081019050919050565b82818337600083830152505050565b6000611ac1611abc84611a6e565b611a53565b905082815260208101848484011115611add57611adc6119dd565b5b611ae8848285611a9f565b509392505050565b600082601f830112611b0557611b046119d8565b5b8135611b15848260208601611aae565b91505092915050565b60008060008060808587031215611b3857611b37611970565b5b6000611b46878288016119c3565b945050602085013567ffffffffffffffff811115611b6757611b66611975565b5b611b7387828801611af0565b935050604085013567ffffffffffffffff811115611b9457611b93611975565b5b611ba087828801611af0565b925050606085013567ffffffffffffffff811115611bc157611bc0611975565b5b611bcd87828801611af0565b91505092959194509250565b6000819050919050565b611bec81611bd9565b82525050565b6000602082019050611c076000830184611be3565b92915050565b600081519050919050565b600082825260208201905092915050565b6000819050602082019050919050565b611c428161199a565b82525050565b6000611c548383611c39565b60208301905092915050565b6000602082019050919050565b6000611c7882611c0d565b611c828185611c18565b9350611c8d83611c29565b8060005b83811015611cbe578151611ca58882611c48565b9750611cb083611c60565b925050600181019050611c91565b5085935050505092915050565b60006020820190508181036000830152611ce58184611c6d565b905092915050565b600060208284031215611d0357611d02611970565b5b6000611d11848285016119c3565b91505092915050565b600081519050919050565b600082825260208201905092915050565b60005b83811015611d54578082015181840152602081019050611d39565b60008484015250505050565b6000611d6b82611d1a565b611d758185611d25565b9350611d85818560208601611d36565b611d8e816119e2565b840191505092915050565b611da28161199a565b82525050565b600060e0820190508181036000830152611dc2818a611d60565b90508181036020830152611dd68189611d60565b9050611de56040830188611be3565b8181036060830152611df78187611d60565b9050611e066080830186611be3565b81810360a0830152611e188185611d60565b9050611e2760c0830184611d99565b98975050505050505050565b611e3c81611bd9565b8114611e4757600080fd5b50565b600081359050611e5981611e33565b92915050565b600060208284031215611e7557611e74611970565b5b6000611e8384828501611e4a565b91505092915050565b6000602082019050611ea16000830184611d99565b92915050565b60008060408385031215611ebe57611ebd611970565b5b6000611ecc858286016119c3565b9250506020611edd85828601611e4a565b9150509250929050565b600060e082019050611efc600083018a611be3565b8181036020830152611f0e8189611d60565b90508181036040830152611f228188611d60565b90508181036060830152611f368187611d60565b9050611f456080830186611be3565b611f5260a0830185611d99565b81810360c0830152611f648184611d60565b905098975050505050505050565b60008115159050919050565b611f8781611f72565b82525050565b600060e082019050611fa2600083018a611be3565b8181036020830152611fb48189611d60565b90508181036040830152611fc88188611d60565b9050611fd76060830187611d99565b8181036080830152611fe98186611d60565b905081810360a0830152611ffd8185611d60565b905061200c60c0830184611f7e565b98975050505050505050565b60006101008201905061202e600083018b611be3565b8181036020830152612040818a611d60565b905081810360408301526120548189611d60565b90506120636060830188611d99565b6120706080830187611be3565b61207d60a0830186611f7e565b61208a60c0830185611be3565b81810360e083015261209c8184611d60565b90509998505050505050505050565b600080600080600060a086880312156120c7576120c6611970565b5b60006120d5888289016119c3565b955050602086013567ffffffffffffffff8111156120f6576120f5611975565b5b61210288828901611af0565b945050604086013567ffffffffffffffff81111561212357612122611975565b5b61212f88828901611af0565b935050606086013567ffffffffffffffff8111156121505761214f611975565b5b61215c88828901611af0565b925050608086013567ffffffffffffffff81111561217d5761217c611975565b5b61218988828901611af0565b9150509295509295909350565b7f6f6e6c7920766f74696e67206f7267616e697a65722063616e2063726561746560008201527f206120766f746572000000000000000000000000000000000000000000000000602082015250565b60006121f2602883611d25565b91506121fd82612196565b604082019050919050565b60006020820190508181036000830152612221816121e5565b9050919050565b7f4e487b7100000000000000000000000000000000000000000000000000000000600052601160045260246000fd5b600061226282611bd9565b91507fffffffffffffffffffffffffffffffffffffffffffffffffffffffffffffffff820361229457612293612228565b5b600182019050919050565b7f416c726561647920726567697374657265640000000000000000000000000000600082015250565b60006122d5601283611d25565b91506122e08261229f565b602082019050919050565b60006020820190508181036000830152612304816122c8565b9050919050565b7f4e487b7100000000000000000000000000000000000000000000000000000000600052602260045260246000fd5b6000600282049050600182168061235257607f821691505b6020821081036123655761236461230b565b5b50919050565b60008190508160005260206000209050919050565b60006020601f8301049050919050565b600082821b905092915050565b6000600883026123cd7fffffffffffffffffffffffffffffffffffffffffffffffffffffffffffffffff82612390565b6123d78683612390565b95508019841693508086168417925050509392505050565b6000819050919050565b600061241461240f61240a84611bd9565b6123ef565b611bd9565b9050919050565b6000819050919050565b61242e836123f9565b61244261243a8261241b565b84845461239d565b825550505050565b600090565b61245761244a565b612462818484612425565b505050565b5b818110156124865761247b60008261244f565b600181019050612468565b5050565b601f8211156124cb5761249c8161236b565b6124a584612380565b810160208510156124b4578190505b6124c86124c085612380565b830182612467565b50505b505050565b600082821c905092915050565b60006124ee600019846008026124d0565b1980831691505092915050565b600061250783836124dd565b9150826002028217905092915050565b61252082611d1a565b67ffffffffffffffff811115612539576125386119f3565b5b612543825461233a565b61254e82828561248a565b600060209050601f831160018114612581576000841561256f578287015190505b61257985826124fb565b8655506125e1565b601f19841661258f8661236b565b60005b828110156125b757848901518255600182019150602085019450602081019050612592565b868310156125d457848901516125d0601f8916826124dd565b8355505b6001600288020188555050505b505050505050565b600081546125f68161233a565b6126008186611d25565b9450600182166000811461261b576001811461263157612664565b60ff198316865281151560200286019350612664565b61263a8561236b565b60005b8381101561265c5781548189015260018201915060208101905061263d565b808801955050505b50505092915050565b600061010082019050612683600083018b611be3565b8181036020830152612695818a611d60565b905081810360408301526126a98189611d60565b90506126b86060830188611d99565b6126c56080830187611be3565b6126d260a0830186611f7e565b6126df60c0830185611be3565b81810360e08301526126f181846125e9565b90509998505050505050505050565b7f616c726561647920766f74656400000000000000000000000000000000000000600082015250565b6000612736600d83611d25565b915061274182612700565b602082019050919050565b6000602082019050818103600083015261276581612729565b9050919050565b7f6e6f74206861766520726967687420746f20766f746500000000000000000000600082015250565b60006127a2601683611d25565b91506127ad8261276c565b602082019050919050565b600060208201905081810360008301526127d181612795565b9050919050565b7f6f6e6c79204f7267616e697a65722063616e20736574207468652063616e646960008201527f6461746500000000000000000000000000000000000000000000000000000000602082015250565b6000612834602483611d25565b915061283f826127d8565b604082019050919050565b6000602082019050818103600083015261286381612827565b9050919050565b600060c08201905081810360008301526128848189611d60565b905081810360208301526128988188611d60565b905081810360408301526128ac8187611d60565b90506128bb6060830186611be3565b6128c86080830185611d99565b81810360a08301526128da8184611d60565b905097965050505050505056fea264697066735822122065974c981548ed4ca97f826d318657e1f438d51ac94e8e30e94bb347a70bed2964736f6c63430008180033",
  "linkReferences": {},
  "deployedLinkReferences": {}
}